{
  "_format": "hh-sol-artifact-1",
  "contractName": "Ballot",
  "sourceName": "contracts/Ballot.sol",
  "abi": [
    {
      "inputs": [
        {
          "internalType": "bytes32[]",
          "name": "proposalNames",
          "type": "bytes32[]"
        }
      ],
      "stateMutability": "nonpayable",
      "type": "constructor"
    },
    {
      "inputs": [],
      "name": "chairperson",
      "outputs": [
        {
          "internalType": "address",
          "name": "",
          "type": "address"
        }
      ],
      "stateMutability": "view",
      "type": "function"
    },
    {
      "inputs": [
        {
          "internalType": "address",
          "name": "to",
          "type": "address"
        }
      ],
      "name": "delegate",
      "outputs": [],
      "stateMutability": "nonpayable",
      "type": "function"
    },
    {
      "inputs": [
        {
          "internalType": "address",
          "name": "voter",
          "type": "address"
        }
      ],
      "name": "giveRightToVote",
      "outputs": [],
      "stateMutability": "nonpayable",
      "type": "function"
    },
    {
      "inputs": [
        {
          "internalType": "uint256",
          "name": "",
          "type": "uint256"
        }
      ],
      "name": "proposals",
      "outputs": [
        {
          "internalType": "bytes32",
          "name": "name",
          "type": "bytes32"
        },
        {
          "internalType": "uint256",
          "name": "voteCount",
          "type": "uint256"
        }
      ],
      "stateMutability": "view",
      "type": "function"
    },
    {
      "inputs": [
        {
          "internalType": "uint256",
          "name": "proposal",
          "type": "uint256"
        }
      ],
      "name": "vote",
      "outputs": [],
      "stateMutability": "nonpayable",
      "type": "function"
    },
    {
      "inputs": [
        {
          "internalType": "address",
          "name": "",
          "type": "address"
        }
      ],
      "name": "voters",
      "outputs": [
        {
          "internalType": "uint256",
          "name": "weight",
          "type": "uint256"
        },
        {
          "internalType": "uint256",
          "name": "vote",
          "type": "uint256"
        },
        {
          "internalType": "bool",
          "name": "voted",
          "type": "bool"
        },
        {
          "internalType": "address",
          "name": "delegate",
          "type": "address"
        }
      ],
      "stateMutability": "view",
      "type": "function"
    },
    {
      "inputs": [],
      "name": "winningProposal",
      "outputs": [
        {
          "internalType": "uint256",
          "name": "proposal_",
          "type": "uint256"
        }
      ],
      "stateMutability": "view",
      "type": "function"
    },
    {
      "inputs": [],
      "name": "winningProposalName",
      "outputs": [
        {
          "internalType": "bytes32",
          "name": "name",
          "type": "bytes32"
        }
      ],
      "stateMutability": "view",
      "type": "function"
    }
  ],
  "bytecode": "0x60806040523480156200001157600080fd5b506040516200178938038062001789833981810160405281019062000037919062000342565b336000806101000a81548173ffffffffffffffffffffffffffffffffffffffff021916908373ffffffffffffffffffffffffffffffffffffffff16021790555060018060008060009054906101000a900473ffffffffffffffffffffffffffffffffffffffff1673ffffffffffffffffffffffffffffffffffffffff1673ffffffffffffffffffffffffffffffffffffffff1681526020019081526020016000206000018190555060005b81518110156200017657600260405180604001604052808484815181106200010f576200010e62000393565b5b60200260200101518152602001600081525090806001815401808255809150506001900390600052602060002090600202016000909190919091506000820151816000015560208201518160010155505080806200016d90620003fb565b915050620000e2565b505062000449565b6000604051905090565b600080fd5b600080fd5b600080fd5b6000601f19601f8301169050919050565b7f4e487b7100000000000000000000000000000000000000000000000000000000600052604160045260246000fd5b620001e28262000197565b810181811067ffffffffffffffff82111715620002045762000203620001a8565b5b80604052505050565b6000620002196200017e565b9050620002278282620001d7565b919050565b600067ffffffffffffffff8211156200024a5762000249620001a8565b5b602082029050602081019050919050565b600080fd5b6000819050919050565b620002758162000260565b81146200028157600080fd5b50565b60008151905062000295816200026a565b92915050565b6000620002b2620002ac846200022c565b6200020d565b90508083825260208201905060208402830185811115620002d857620002d76200025b565b5b835b81811015620003055780620002f0888262000284565b845260208401935050602081019050620002da565b5050509392505050565b600082601f83011262000327576200032662000192565b5b8151620003398482602086016200029b565b91505092915050565b6000602082840312156200035b576200035a62000188565b5b600082015167ffffffffffffffff8111156200037c576200037b6200018d565b5b6200038a848285016200030f565b91505092915050565b7f4e487b7100000000000000000000000000000000000000000000000000000000600052603260045260246000fd5b7f4e487b7100000000000000000000000000000000000000000000000000000000600052601160045260246000fd5b6000819050919050565b60006200040882620003f1565b91507fffffffffffffffffffffffffffffffffffffffffffffffffffffffffffffffff8214156200043e576200043d620003c2565b5b600182019050919050565b61133080620004596000396000f3fe608060405234801561001057600080fd5b50600436106100885760003560e01c80635c19a95c1161005b5780635c19a95c14610116578063609ff1bd146101325780639e7b8d6114610150578063a3ec138d1461016c57610088565b80630121b93f1461008d578063013cf08b146100a95780632e4176cf146100da5780632eba34ac146100f8575b600080fd5b6100a760048036038101906100a29190610b79565b61019f565b005b6100c360048036038101906100be9190610b79565b6102e6565b6040516100d1929190610bce565b60405180910390f35b6100e261031a565b6040516100ef9190610c38565b60405180910390f35b61010061033e565b60405161010d9190610c53565b60405180910390f35b610130600480360381019061012b9190610c9a565b610372565b005b61013a61079e565b6040516101479190610cc7565b60405180910390f35b61016a60048036038101906101659190610c9a565b610826565b005b61018660048036038101906101819190610c9a565b610a1c565b6040516101969493929190610cfd565b60405180910390f35b6000600160003373ffffffffffffffffffffffffffffffffffffffff1673ffffffffffffffffffffffffffffffffffffffff168152602001908152602001600020905060008160000154141561022a576040517f08c379a000000000000000000000000000000000000000000000000000000000815260040161022190610d9f565b60405180910390fd5b8060020160009054906101000a900460ff161561027c576040517f08c379a000000000000000000000000000000000000000000000000000000000815260040161027390610e0b565b60405180910390fd5b60018160020160006101000a81548160ff0219169083151502179055508181600101819055508060000154600283815481106102bb576102ba610e2b565b5b906000526020600020906002020160010160008282546102db9190610e89565b925050819055505050565b600281815481106102f657600080fd5b90600052602060002090600202016000915090508060000154908060010154905082565b60008054906101000a900473ffffffffffffffffffffffffffffffffffffffff1681565b6000600261034a61079e565b8154811061035b5761035a610e2b565b5b906000526020600020906002020160000154905090565b6000600160003373ffffffffffffffffffffffffffffffffffffffff1673ffffffffffffffffffffffffffffffffffffffff16815260200190815260200160002090506000816000015414156103fd576040517f08c379a00000000000000000000000000000000000000000000000000000000081526004016103f490610f2b565b60405180910390fd5b8060020160009054906101000a900460ff161561044f576040517f08c379a000000000000000000000000000000000000000000000000000000000815260040161044690610f97565b60405180910390fd5b3373ffffffffffffffffffffffffffffffffffffffff168273ffffffffffffffffffffffffffffffffffffffff1614156104be576040517f08c379a00000000000000000000000000000000000000000000000000000000081526004016104b590611003565b60405180910390fd5b5b600073ffffffffffffffffffffffffffffffffffffffff16600160008473ffffffffffffffffffffffffffffffffffffffff1673ffffffffffffffffffffffffffffffffffffffff16815260200190815260200160002060020160019054906101000a900473ffffffffffffffffffffffffffffffffffffffff1673ffffffffffffffffffffffffffffffffffffffff161461062e57600160008373ffffffffffffffffffffffffffffffffffffffff1673ffffffffffffffffffffffffffffffffffffffff16815260200190815260200160002060020160019054906101000a900473ffffffffffffffffffffffffffffffffffffffff1691503373ffffffffffffffffffffffffffffffffffffffff168273ffffffffffffffffffffffffffffffffffffffff161415610629576040517f08c379a00000000000000000000000000000000000000000000000000000000081526004016106209061106f565b60405180910390fd5b6104bf565b6000600160008473ffffffffffffffffffffffffffffffffffffffff1673ffffffffffffffffffffffffffffffffffffffff16815260200190815260200160002090506001816000015410156106b9576040517f08c379a00000000000000000000000000000000000000000000000000000000081526004016106b0906110db565b60405180910390fd5b60018260020160006101000a81548160ff021916908315150217905550828260020160016101000a81548173ffffffffffffffffffffffffffffffffffffffff021916908373ffffffffffffffffffffffffffffffffffffffff1602179055508060020160009054906101000a900460ff1615610779578160000154600282600101548154811061074d5761074c610e2b565b5b9060005260206000209060020201600101600082825461076d9190610e89565b92505081905550610799565b81600001548160000160008282546107919190610e89565b925050819055505b505050565b6000806000905060005b6002805490508110156108215781600282815481106107ca576107c9610e2b565b5b906000526020600020906002020160010154111561080e57600281815481106107f6576107f5610e2b565b5b90600052602060002090600202016001015491508092505b8080610819906110fb565b9150506107a8565b505090565b6108656040518060400160405280601881526020017f676976655269676874546f566f746520616464726573733a000000000000000081525082610a79565b60008054906101000a900473ffffffffffffffffffffffffffffffffffffffff1673ffffffffffffffffffffffffffffffffffffffff163373ffffffffffffffffffffffffffffffffffffffff16146108f3576040517f08c379a00000000000000000000000000000000000000000000000000000000081526004016108ea906111b6565b60405180910390fd5b600160008273ffffffffffffffffffffffffffffffffffffffff1673ffffffffffffffffffffffffffffffffffffffff16815260200190815260200160002060020160009054906101000a900460ff1615610983576040517f08c379a000000000000000000000000000000000000000000000000000000000815260040161097a90611222565b60405180910390fd5b6000600160008373ffffffffffffffffffffffffffffffffffffffff1673ffffffffffffffffffffffffffffffffffffffff16815260200190815260200160002060000154146109d257600080fd5b60018060008373ffffffffffffffffffffffffffffffffffffffff1673ffffffffffffffffffffffffffffffffffffffff1681526020019081526020016000206000018190555050565b60016020528060005260406000206000915090508060000154908060010154908060020160009054906101000a900460ff16908060020160019054906101000a900473ffffffffffffffffffffffffffffffffffffffff16905084565b610b118282604051602401610a8f9291906112ca565b6040516020818303038152906040527f319af333000000000000000000000000000000000000000000000000000000007bffffffffffffffffffffffffffffffffffffffffffffffffffffffff19166020820180517bffffffffffffffffffffffffffffffffffffffffffffffffffffffff8381831617835250505050610b15565b5050565b60008151905060006a636f6e736f6c652e6c6f679050602083016000808483855afa5050505050565b600080fd5b6000819050919050565b610b5681610b43565b8114610b6157600080fd5b50565b600081359050610b7381610b4d565b92915050565b600060208284031215610b8f57610b8e610b3e565b5b6000610b9d84828501610b64565b91505092915050565b6000819050919050565b610bb981610ba6565b82525050565b610bc881610b43565b82525050565b6000604082019050610be36000830185610bb0565b610bf06020830184610bbf565b9392505050565b600073ffffffffffffffffffffffffffffffffffffffff82169050919050565b6000610c2282610bf7565b9050919050565b610c3281610c17565b82525050565b6000602082019050610c4d6000830184610c29565b92915050565b6000602082019050610c686000830184610bb0565b92915050565b610c7781610c17565b8114610c8257600080fd5b50565b600081359050610c9481610c6e565b92915050565b600060208284031215610cb057610caf610b3e565b5b6000610cbe84828501610c85565b91505092915050565b6000602082019050610cdc6000830184610bbf565b92915050565b60008115159050919050565b610cf781610ce2565b82525050565b6000608082019050610d126000830187610bbf565b610d1f6020830186610bbf565b610d2c6040830185610cee565b610d396060830184610c29565b95945050505050565b600082825260208201905092915050565b7f686173206e6f20726967687420746f20766f7465000000000000000000000000600082015250565b6000610d89601483610d42565b9150610d9482610d53565b602082019050919050565b60006020820190508181036000830152610db881610d7c565b9050919050565b7f68617320616c726561647920766f746564000000000000000000000000000000600082015250565b6000610df5601183610d42565b9150610e0082610dbf565b602082019050919050565b60006020820190508181036000830152610e2481610de8565b9050919050565b7f4e487b7100000000000000000000000000000000000000000000000000000000600052603260045260246000fd5b7f4e487b7100000000000000000000000000000000000000000000000000000000600052601160045260246000fd5b6000610e9482610b43565b9150610e9f83610b43565b9250827fffffffffffffffffffffffffffffffffffffffffffffffffffffffffffffffff03821115610ed457610ed3610e5a565b5b828201905092915050565b7f796f752068617665206e6f20726967687420746f20766f746500000000000000600082015250565b6000610f15601983610d42565b9150610f2082610edf565b602082019050919050565b60006020820190508181036000830152610f4481610f08565b9050919050565b7f796f75206861766520616c726561647920766f74656400000000000000000000600082015250565b6000610f81601683610d42565b9150610f8c82610f4b565b602082019050919050565b60006020820190508181036000830152610fb081610f74565b9050919050565b7f73656c672d64656c65676174696f6e20697320646973616c6c6f776564000000600082015250565b6000610fed601d83610d42565b9150610ff882610fb7565b602082019050919050565b6000602082019050818103600083015261101c81610fe0565b9050919050565b7f666f756e64206c6f6f7020696e2064656c65676174696f6e0000000000000000600082015250565b6000611059601883610d42565b915061106482611023565b602082019050919050565b600060208201905081810360008301526110888161104c565b9050919050565b7f6e6f207269676874000000000000000000000000000000000000000000000000600082015250565b60006110c5600883610d42565b91506110d08261108f565b602082019050919050565b600060208201905081810360008301526110f4816110b8565b9050919050565b600061110682610b43565b91507fffffffffffffffffffffffffffffffffffffffffffffffffffffffffffffffff82141561113957611138610e5a565b5b600182019050919050565b7f6f6e6c792063686169727072736f6e2063616e2067697665207269676874207460008201527f6f20766f74650000000000000000000000000000000000000000000000000000602082015250565b60006111a0602683610d42565b91506111ab82611144565b604082019050919050565b600060208201905081810360008301526111cf81611193565b9050919050565b7f74686520766f74657220616c726561647920766f746564000000000000000000600082015250565b600061120c601783610d42565b9150611217826111d6565b602082019050919050565b6000602082019050818103600083015261123b816111ff565b9050919050565b600081519050919050565b60005b8381101561126b578082015181840152602081019050611250565b8381111561127a576000848401525b50505050565b6000601f19601f8301169050919050565b600061129c82611242565b6112a68185610d42565b93506112b681856020860161124d565b6112bf81611280565b840191505092915050565b600060408201905081810360008301526112e48185611291565b90506112f36020830184610c29565b939250505056fea26469706673582212204d6d1d3822eb4e4dc8b6540ad9503bd342a973e22cf919d3c31e2972e973127564736f6c63430008090033",
  "linkReferences": {},
  "deployedLinkReferences": {}
}